:100000000C942A000C943F000C943F000C943F0089
:100010000C943F000C943F000C943F000C943F0064
:100020000C943F000C943F000C943F000C943F0054
:100030000C943F000C943F000C943F000C943F0044
:100040000C943F000C943F000C943F000C943F0034
:100050000C943F0011241FBECFE5D8E0DEBFCDBF1A
:1000600010E0A0E6B0E0EEEBF5E002C005900D92E6
:10007000AE37B107D9F70E948D020C94DD020C94C3
:100080000000442319F04130C9F10895813091F006
:1000900028F08230D9F0833029F108952AB381E025
:1000A00090E002C0880F991F6A95E2F7809582233D
:1000B0008ABB089527B381E090E002C0880F991FA2
:1000C0006A95E2F78095822387BB089524B381E087
:1000D00090E002C0880F991F6A95E2F7809582230D
:1000E00084BB089521B381E090E002C0880F991F7E
:1000F0006A95E2F78095822381BB0895813089F06B
:1001000028F08230C9F0833011F108952AB381E0DC
:1001100090E002C0880F991F6A95E2F7822B8ABB94
:10012000089527B381E090E002C0880F991F6A9577
:10013000E2F7822B87BB089524B381E090E002C0F0
:10014000880F991F6A95E2F7822B84BB089521B32B
:1001500081E090E002C0880F991F6A95E2F7822B38
:1001600081BB0895442319F04130C9F108958130CD
:1001700091F028F08230D9F0833029F108952BB323
:1001800081E090E002C0880F991F6A95E2F78095A0
:1001900082238BBB089528B381E090E002C0880FD2
:1001A000991F6A95E2F78095822388BB089525B34D
:1001B00081E090E002C0880F991F6A95E2F7809570
:1001C000822385BB089522B381E090E002C0880FAE
:1001D000991F6A95E2F78095822382BB089581304A
:1001E00089F028F08230C9F0833011F108952BB3E3
:1001F00081E090E002C0880F991F6A95E2F7822B98
:100200008BBB089528B381E090E002C0880F991F4E
:100210006A95E2F7822B88BB089525B381E090E0D0
:1002200002C0880F991F6A95E2F7822B85BB08955B
:1002300022B381E090E002C0880F991F6A95E2F72F
:10024000822B82BB0895813089F028F08230C9F07A
:10025000833011F108952BB381E090E002C0880F44
:10026000991F6A95E2F782278BBB089528B381E036
:1002700090E002C0880F991F6A95E2F7822788BB39
:10028000089525B381E090E002C0880F991F6A9518
:10029000E2F7822785BB089522B381E090E002C097
:1002A000880F991F6A95E2F7822782BB0895D39A37
:1002B0000895DB9A0895DB980895D29A08950E94D4
:1002C00059012FEF89E698E1215080409040E1F7F5
:1002D00000C000000E945B010895CF93C82F40E04A
:1002E00061E081E00E94B20040E062E081E00E94B3
:1002F000B20040E063E081E00E94B2008BB39C2F2B
:10030000907F8F70892B8BBB41E063E081E00E947E
:10031000B2008FE99FE00197F1F700C0000040E0D4
:1003200063E081E00E94B2002BB330E1C39FC001C3
:100330001124922F9F70892B8BBB41E063E081E0F9
:100340000E94B2008FE99FE00197F1F700C0000022
:1003500040E063E081E00E94B2008FE19EE40197FB
:10036000F1F700C00000CF91089541E061E081E025
:100370000E94410041E062E081E00E94410041E0D2
:1003800063E081E00E94410041E064E080E00E947F
:10039000410041E065E080E00E94410041E066E00C
:1003A00080E00E94410041E067E080E00E9441005F
:1003B00083E30E946D0182E30E946D0188E20E9446
:1003C0006D0182E00E946D018CE00E946D0181E070
:1003D0000E946D0186E00E946D0140E061E081E0D5
:1003E0000E94B20040E062E081E00E94B20040E082
:1003F00063E081E00E94B20040E064E080E00E949F
:10040000B20040E065E080E00E94B20040E066E0BB
:1004100080E00E94B20040E067E080E00E94B2000D
:10042000089581E00E946D010895CF93C82F41E0A7
:1004300061E081E00E94B20040E062E081E00E9461
:10044000B20040E063E081E00E94B2008BB39C2FD9
:10045000907F8F70892B8BBB41E063E081E00E942D
:10046000B2008FE99FE00197F1F700C0000040E083
:1004700063E081E00E94B2002BB330E1C39FC00172
:100480001124922F9F70892B8BBB41E063E081E0A8
:100490000E94B2008FE99FE00197F1F700C00000D1
:1004A00040E063E081E00E94B2008FE19EE40197AA
:1004B000F1F700C00000CF910895CF93DF93EC01D6
:1004C0008881882331F021960E941502899181113B
:1004D000FBCFDF91CF91089541E062E082E00E947E
:1004E0004100089562E082E00E942301089541E006
:1004F00067E082E00E944100089567E082E00E9488
:100500002301089541E063E083E00E9441000895E3
:1005100063E083E00E94230108950E946C020E9420
:1005200077020E9482020E9457010E945D010E9490
:10053000CA020E94B5010E94D50280E690E00E94A6
:100540005D020E94D102813359F40E9411028BE6B0
:1005500090E00E945D020E9472020E945F01F1CF52
:10056000823359F40E94110281E790E00E945D02FB
:100570000E947D020E945F01E4CF833311F70E9445
:10058000110287E790E00E945D020E9488020E94AB
:100590005F01D7CFBD98BE9ABF98BC9883E48DB950
:1005A0000895779BFECF8FB1089588E18AB986E8D8
:0E05B00080BD87E689B910BC0895F894FFCF8E
:1005BE00536D61727420486F6D65006C65642031F7
:0E05CE00006C65642032006C656420332000F0
:00000001FF
